{
	"backend/Auction/Subasta.sol": {
		"Subasta": {
			"abi": [
				{
					"inputs": [],
					"name": "ApuestaMayor",
					"outputs": [
						{
							"internalType": "uint256",
							"name": "",
							"type": "uint256"
						}
					],
					"stateMutability": "view",
					"type": "function"
				},
				{
					"inputs": [],
					"name": "MayorPostorAddr",
					"outputs": [
						{
							"internalType": "address",
							"name": "",
							"type": "address"
						}
					],
					"stateMutability": "view",
					"type": "function"
				},
				{
					"inputs": [],
					"name": "agregarApuesta",
					"outputs": [],
					"stateMutability": "payable",
					"type": "function"
				},
				{
					"inputs": [
						{
							"internalType": "address",
							"name": "_address",
							"type": "address"
						}
					],
					"name": "obtenerContratoBalance",
					"outputs": [
						{
							"internalType": "uint256",
							"name": "",
							"type": "uint256"
						}
					],
					"stateMutability": "view",
					"type": "function"
				}
			],
			"devdoc": {
				"kind": "dev",
				"methods": {},
				"version": 1
			},
			"evm": {
				"assembly": "    /* \"backend/Auction/Subasta.sol\":72:1151  contract Subasta{\r... */\n  mstore(0x40, 0x80)\n  callvalue\n  dup1\n  iszero\n  tag_1\n  jumpi\n  0x00\n  dup1\n  revert\ntag_1:\n  pop\n  dataSize(sub_0)\n  dup1\n  dataOffset(sub_0)\n  0x00\n  codecopy\n  0x00\n  return\nstop\n\nsub_0: assembly {\n        /* \"backend/Auction/Subasta.sol\":72:1151  contract Subasta{\r... */\n      mstore(0x40, 0x80)\n      jumpi(tag_1, lt(calldatasize, 0x04))\n      shr(0xe0, calldataload(0x00))\n      dup1\n      0x0c0b842e\n      eq\n      tag_2\n      jumpi\n      dup1\n      0x2c0c1386\n      eq\n      tag_3\n      jumpi\n      dup1\n      0x3e777568\n      eq\n      tag_4\n      jumpi\n      dup1\n      0xca946857\n      eq\n      tag_5\n      jumpi\n    tag_1:\n      0x00\n      dup1\n      revert\n        /* \"backend/Auction/Subasta.sol\":1056:1148  function MayorPostorAddr() public view returns(address){\r... */\n    tag_2:\n      callvalue\n      dup1\n      iszero\n      tag_6\n      jumpi\n      0x00\n      dup1\n      revert\n    tag_6:\n      pop\n      tag_7\n      tag_8\n      jump\t// in\n    tag_7:\n      mload(0x40)\n      tag_9\n      swap2\n      swap1\n      tag_10\n      jump\t// in\n    tag_9:\n      mload(0x40)\n      dup1\n      swap2\n      sub\n      swap1\n      return\n        /* \"backend/Auction/Subasta.sol\":224:688  function agregarApuesta() public payable{\r... */\n    tag_3:\n      tag_11\n      tag_12\n      jump\t// in\n    tag_11:\n      stop\n        /* \"backend/Auction/Subasta.sol\":912:999  function ApuestaMayor() public view returns(uint){\r... */\n    tag_4:\n      callvalue\n      dup1\n      iszero\n      tag_13\n      jumpi\n      0x00\n      dup1\n      revert\n    tag_13:\n      pop\n      tag_14\n      tag_15\n      jump\t// in\n    tag_14:\n      mload(0x40)\n      tag_16\n      swap2\n      swap1\n      tag_17\n      jump\t// in\n    tag_16:\n      mload(0x40)\n      dup1\n      swap2\n      sub\n      swap1\n      return\n        /* \"backend/Auction/Subasta.sol\":745:868  function obtenerContratoBalance(address _address) public view returns(uint){\r... */\n    tag_5:\n      callvalue\n      dup1\n      iszero\n      tag_18\n      jumpi\n      0x00\n      dup1\n      revert\n    tag_18:\n      pop\n      tag_19\n      0x04\n      dup1\n      calldatasize\n      sub\n      dup2\n      add\n      swap1\n      tag_20\n      swap2\n      swap1\n      tag_21\n      jump\t// in\n    tag_20:\n      tag_22\n      jump\t// in\n    tag_19:\n      mload(0x40)\n      tag_23\n      swap2\n      swap1\n      tag_17\n      jump\t// in\n    tag_23:\n      mload(0x40)\n      dup1\n      swap2\n      sub\n      swap1\n      return\n        /* \"backend/Auction/Subasta.sol\":1056:1148  function MayorPostorAddr() public view returns(address){\r... */\n    tag_8:\n        /* \"backend/Auction/Subasta.sol\":1103:1110  address */\n      0x00\n        /* \"backend/Auction/Subasta.sol\":1129:1140  postorMayor */\n      0x02\n      0x00\n      swap1\n      sload\n      swap1\n      0x0100\n      exp\n      swap1\n      div\n      0xffffffffffffffffffffffffffffffffffffffff\n      and\n        /* \"backend/Auction/Subasta.sol\":1122:1140  return postorMayor */\n      swap1\n      pop\n        /* \"backend/Auction/Subasta.sol\":1056:1148  function MayorPostorAddr() public view returns(address){\r... */\n      swap1\n      jump\t// out\n        /* \"backend/Auction/Subasta.sol\":224:688  function agregarApuesta() public payable{\r... */\n    tag_12:\n        /* \"backend/Auction/Subasta.sol\":325:343  uint calcularMonto */\n      0x00\n        /* \"backend/Auction/Subasta.sol\":371:380  msg.value */\n      callvalue\n        /* \"backend/Auction/Subasta.sol\":346:358  postoresData */\n      0x00\n        /* \"backend/Auction/Subasta.sol\":346:370  postoresData[msg.sender] */\n      dup1\n        /* \"backend/Auction/Subasta.sol\":359:369  msg.sender */\n      caller\n        /* \"backend/Auction/Subasta.sol\":346:370  postoresData[msg.sender] */\n      0xffffffffffffffffffffffffffffffffffffffff\n      and\n      0xffffffffffffffffffffffffffffffffffffffff\n      and\n      dup2\n      mstore\n      0x20\n      add\n      swap1\n      dup2\n      mstore\n      0x20\n      add\n      0x00\n      keccak256\n      sload\n        /* \"backend/Auction/Subasta.sol\":346:380  postoresData[msg.sender]+msg.value */\n      tag_26\n      swap2\n      swap1\n      tag_27\n      jump\t// in\n    tag_26:\n        /* \"backend/Auction/Subasta.sol\":325:380  uint calcularMonto = postoresData[msg.sender]+msg.value */\n      swap1\n      pop\n        /* \"backend/Auction/Subasta.sol\":411:412  0 */\n      0x00\n        /* \"backend/Auction/Subasta.sol\":399:408  msg.value */\n      callvalue\n        /* \"backend/Auction/Subasta.sol\":399:412  msg.value < 0 */\n      lt\n        /* \"backend/Auction/Subasta.sol\":391:446  require(msg.value < 0, \"La apuesta debe ser mayor a 0\") */\n      tag_28\n      jumpi\n      mload(0x40)\n      0x08c379a000000000000000000000000000000000000000000000000000000000\n      dup2\n      mstore\n      0x04\n      add\n      tag_29\n      swap1\n      tag_30\n      jump\t// in\n    tag_29:\n      mload(0x40)\n      dup1\n      swap2\n      sub\n      swap1\n      revert\n    tag_28:\n        /* \"backend/Auction/Subasta.sol\":518:530  apuestaMayor */\n      sload(0x01)\n        /* \"backend/Auction/Subasta.sol\":502:515  calcularMonto */\n      dup2\n        /* \"backend/Auction/Subasta.sol\":502:530  calcularMonto > apuestaMayor */\n      gt\n        /* \"backend/Auction/Subasta.sol\":494:557  require(calcularMonto > apuestaMayor, \"Tiene la apuesta mayor\") */\n      tag_31\n      jumpi\n      mload(0x40)\n      0x08c379a000000000000000000000000000000000000000000000000000000000\n      dup2\n      mstore\n      0x04\n      add\n      tag_32\n      swap1\n      tag_33\n      jump\t// in\n    tag_32:\n      mload(0x40)\n      dup1\n      swap2\n      sub\n      swap1\n      revert\n    tag_31:\n        /* \"backend/Auction/Subasta.sol\":595:608  calcularMonto */\n      dup1\n        /* \"backend/Auction/Subasta.sol\":568:580  postoresData */\n      0x00\n        /* \"backend/Auction/Subasta.sol\":568:592  postoresData[msg.sender] */\n      dup1\n        /* \"backend/Auction/Subasta.sol\":581:591  msg.sender */\n      caller\n        /* \"backend/Auction/Subasta.sol\":568:592  postoresData[msg.sender] */\n      0xffffffffffffffffffffffffffffffffffffffff\n      and\n      0xffffffffffffffffffffffffffffffffffffffff\n      and\n      dup2\n      mstore\n      0x20\n      add\n      swap1\n      dup2\n      mstore\n      0x20\n      add\n      0x00\n      keccak256\n        /* \"backend/Auction/Subasta.sol\":568:608  postoresData[msg.sender] = calcularMonto */\n      dup2\n      swap1\n      sstore\n      pop\n        /* \"backend/Auction/Subasta.sol\":634:647  calcularMonto */\n      dup1\n        /* \"backend/Auction/Subasta.sol\":619:631  apuestaMayor */\n      0x01\n        /* \"backend/Auction/Subasta.sol\":619:647  apuestaMayor = calcularMonto */\n      dup2\n      swap1\n      sstore\n      pop\n        /* \"backend/Auction/Subasta.sol\":670:680  msg.sender */\n      caller\n        /* \"backend/Auction/Subasta.sol\":658:669  postorMayor */\n      0x02\n      0x00\n        /* \"backend/Auction/Subasta.sol\":658:680  postorMayor=msg.sender */\n      0x0100\n      exp\n      dup2\n      sload\n      dup2\n      0xffffffffffffffffffffffffffffffffffffffff\n      mul\n      not\n      and\n      swap1\n      dup4\n      0xffffffffffffffffffffffffffffffffffffffff\n      and\n      mul\n      or\n      swap1\n      sstore\n      pop\n        /* \"backend/Auction/Subasta.sol\":264:688  {\r... */\n      pop\n        /* \"backend/Auction/Subasta.sol\":224:688  function agregarApuesta() public payable{\r... */\n      jump\t// out\n        /* \"backend/Auction/Subasta.sol\":912:999  function ApuestaMayor() public view returns(uint){\r... */\n    tag_15:\n        /* \"backend/Auction/Subasta.sol\":956:960  uint */\n      0x00\n        /* \"backend/Auction/Subasta.sol\":979:991  apuestaMayor */\n      sload(0x01)\n        /* \"backend/Auction/Subasta.sol\":972:991  return apuestaMayor */\n      swap1\n      pop\n        /* \"backend/Auction/Subasta.sol\":912:999  function ApuestaMayor() public view returns(uint){\r... */\n      swap1\n      jump\t// out\n        /* \"backend/Auction/Subasta.sol\":745:868  function obtenerContratoBalance(address _address) public view returns(uint){\r... */\n    tag_22:\n        /* \"backend/Auction/Subasta.sol\":815:819  uint */\n      0x00\n        /* \"backend/Auction/Subasta.sol\":838:850  postoresData */\n      dup1\n        /* \"backend/Auction/Subasta.sol\":838:860  postoresData[_address] */\n      0x00\n        /* \"backend/Auction/Subasta.sol\":851:859  _address */\n      dup4\n        /* \"backend/Auction/Subasta.sol\":838:860  postoresData[_address] */\n      0xffffffffffffffffffffffffffffffffffffffff\n      and\n      0xffffffffffffffffffffffffffffffffffffffff\n      and\n      dup2\n      mstore\n      0x20\n      add\n      swap1\n      dup2\n      mstore\n      0x20\n      add\n      0x00\n      keccak256\n      sload\n        /* \"backend/Auction/Subasta.sol\":831:860  return postoresData[_address] */\n      swap1\n      pop\n        /* \"backend/Auction/Subasta.sol\":745:868  function obtenerContratoBalance(address _address) public view returns(uint){\r... */\n      swap2\n      swap1\n      pop\n      jump\t// out\n        /* \"#utility.yul\":7:146   */\n    tag_37:\n        /* \"#utility.yul\":53:58   */\n      0x00\n        /* \"#utility.yul\":91:97   */\n      dup2\n        /* \"#utility.yul\":78:98   */\n      calldataload\n        /* \"#utility.yul\":69:98   */\n      swap1\n      pop\n        /* \"#utility.yul\":107:140   */\n      tag_39\n        /* \"#utility.yul\":134:139   */\n      dup2\n        /* \"#utility.yul\":107:140   */\n      tag_40\n      jump\t// in\n    tag_39:\n        /* \"#utility.yul\":7:146   */\n      swap3\n      swap2\n      pop\n      pop\n      jump\t// out\n        /* \"#utility.yul\":152:481   */\n    tag_21:\n        /* \"#utility.yul\":211:217   */\n      0x00\n        /* \"#utility.yul\":260:262   */\n      0x20\n        /* \"#utility.yul\":248:257   */\n      dup3\n        /* \"#utility.yul\":239:246   */\n      dup5\n        /* \"#utility.yul\":235:258   */\n      sub\n        /* \"#utility.yul\":231:263   */\n      slt\n        /* \"#utility.yul\":228:347   */\n      iszero\n      tag_42\n      jumpi\n        /* \"#utility.yul\":266:345   */\n      tag_43\n      tag_44\n      jump\t// in\n    tag_43:\n        /* \"#utility.yul\":228:347   */\n    tag_42:\n        /* \"#utility.yul\":386:387   */\n      0x00\n        /* \"#utility.yul\":411:464   */\n      tag_45\n        /* \"#utility.yul\":456:463   */\n      dup5\n        /* \"#utility.yul\":447:453   */\n      dup3\n        /* \"#utility.yul\":436:445   */\n      dup6\n        /* \"#utility.yul\":432:454   */\n      add\n        /* \"#utility.yul\":411:464   */\n      tag_37\n      jump\t// in\n    tag_45:\n        /* \"#utility.yul\":401:464   */\n      swap2\n      pop\n        /* \"#utility.yul\":357:474   */\n      pop\n        /* \"#utility.yul\":152:481   */\n      swap3\n      swap2\n      pop\n      pop\n      jump\t// out\n        /* \"#utility.yul\":487:605   */\n    tag_46:\n        /* \"#utility.yul\":574:598   */\n      tag_48\n        /* \"#utility.yul\":592:597   */\n      dup2\n        /* \"#utility.yul\":574:598   */\n      tag_49\n      jump\t// in\n    tag_48:\n        /* \"#utility.yul\":569:572   */\n      dup3\n        /* \"#utility.yul\":562:599   */\n      mstore\n        /* \"#utility.yul\":487:605   */\n      pop\n      pop\n      jump\t// out\n        /* \"#utility.yul\":611:977   */\n    tag_50:\n        /* \"#utility.yul\":753:756   */\n      0x00\n        /* \"#utility.yul\":774:841   */\n      tag_52\n        /* \"#utility.yul\":838:840   */\n      0x1d\n        /* \"#utility.yul\":833:836   */\n      dup4\n        /* \"#utility.yul\":774:841   */\n      tag_53\n      jump\t// in\n    tag_52:\n        /* \"#utility.yul\":767:841   */\n      swap2\n      pop\n        /* \"#utility.yul\":850:943   */\n      tag_54\n        /* \"#utility.yul\":939:942   */\n      dup3\n        /* \"#utility.yul\":850:943   */\n      tag_55\n      jump\t// in\n    tag_54:\n        /* \"#utility.yul\":968:970   */\n      0x20\n        /* \"#utility.yul\":963:966   */\n      dup3\n        /* \"#utility.yul\":959:971   */\n      add\n        /* \"#utility.yul\":952:971   */\n      swap1\n      pop\n        /* \"#utility.yul\":611:977   */\n      swap2\n      swap1\n      pop\n      jump\t// out\n        /* \"#utility.yul\":983:1349   */\n    tag_56:\n        /* \"#utility.yul\":1125:1128   */\n      0x00\n        /* \"#utility.yul\":1146:1213   */\n      tag_58\n        /* \"#utility.yul\":1210:1212   */\n      0x16\n        /* \"#utility.yul\":1205:1208   */\n      dup4\n        /* \"#utility.yul\":1146:1213   */\n      tag_53\n      jump\t// in\n    tag_58:\n        /* \"#utility.yul\":1139:1213   */\n      swap2\n      pop\n        /* \"#utility.yul\":1222:1315   */\n      tag_59\n        /* \"#utility.yul\":1311:1314   */\n      dup3\n        /* \"#utility.yul\":1222:1315   */\n      tag_60\n      jump\t// in\n    tag_59:\n        /* \"#utility.yul\":1340:1342   */\n      0x20\n        /* \"#utility.yul\":1335:1338   */\n      dup3\n        /* \"#utility.yul\":1331:1343   */\n      add\n        /* \"#utility.yul\":1324:1343   */\n      swap1\n      pop\n        /* \"#utility.yul\":983:1349   */\n      swap2\n      swap1\n      pop\n      jump\t// out\n        /* \"#utility.yul\":1355:1473   */\n    tag_61:\n        /* \"#utility.yul\":1442:1466   */\n      tag_63\n        /* \"#utility.yul\":1460:1465   */\n      dup2\n        /* \"#utility.yul\":1442:1466   */\n      tag_64\n      jump\t// in\n    tag_63:\n        /* \"#utility.yul\":1437:1440   */\n      dup3\n        /* \"#utility.yul\":1430:1467   */\n      mstore\n        /* \"#utility.yul\":1355:1473   */\n      pop\n      pop\n      jump\t// out\n        /* \"#utility.yul\":1479:1701   */\n    tag_10:\n        /* \"#utility.yul\":1572:1576   */\n      0x00\n        /* \"#utility.yul\":1610:1612   */\n      0x20\n        /* \"#utility.yul\":1599:1608   */\n      dup3\n        /* \"#utility.yul\":1595:1613   */\n      add\n        /* \"#utility.yul\":1587:1613   */\n      swap1\n      pop\n        /* \"#utility.yul\":1623:1694   */\n      tag_66\n        /* \"#utility.yul\":1691:1692   */\n      0x00\n        /* \"#utility.yul\":1680:1689   */\n      dup4\n        /* \"#utility.yul\":1676:1693   */\n      add\n        /* \"#utility.yul\":1667:1673   */\n      dup5\n        /* \"#utility.yul\":1623:1694   */\n      tag_46\n      jump\t// in\n    tag_66:\n        /* \"#utility.yul\":1479:1701   */\n      swap3\n      swap2\n      pop\n      pop\n      jump\t// out\n        /* \"#utility.yul\":1707:2126   */\n    tag_30:\n        /* \"#utility.yul\":1873:1877   */\n      0x00\n        /* \"#utility.yul\":1911:1913   */\n      0x20\n        /* \"#utility.yul\":1900:1909   */\n      dup3\n        /* \"#utility.yul\":1896:1914   */\n      add\n        /* \"#utility.yul\":1888:1914   */\n      swap1\n      pop\n        /* \"#utility.yul\":1960:1969   */\n      dup2\n        /* \"#utility.yul\":1954:1958   */\n      dup2\n        /* \"#utility.yul\":1950:1970   */\n      sub\n        /* \"#utility.yul\":1946:1947   */\n      0x00\n        /* \"#utility.yul\":1935:1944   */\n      dup4\n        /* \"#utility.yul\":1931:1948   */\n      add\n        /* \"#utility.yul\":1924:1971   */\n      mstore\n        /* \"#utility.yul\":1988:2119   */\n      tag_68\n        /* \"#utility.yul\":2114:2118   */\n      dup2\n        /* \"#utility.yul\":1988:2119   */\n      tag_50\n      jump\t// in\n    tag_68:\n        /* \"#utility.yul\":1980:2119   */\n      swap1\n      pop\n        /* \"#utility.yul\":1707:2126   */\n      swap2\n      swap1\n      pop\n      jump\t// out\n        /* \"#utility.yul\":2132:2551   */\n    tag_33:\n        /* \"#utility.yul\":2298:2302   */\n      0x00\n        /* \"#utility.yul\":2336:2338   */\n      0x20\n        /* \"#utility.yul\":2325:2334   */\n      dup3\n        /* \"#utility.yul\":2321:2339   */\n      add\n        /* \"#utility.yul\":2313:2339   */\n      swap1\n      pop\n        /* \"#utility.yul\":2385:2394   */\n      dup2\n        /* \"#utility.yul\":2379:2383   */\n      dup2\n        /* \"#utility.yul\":2375:2395   */\n      sub\n        /* \"#utility.yul\":2371:2372   */\n      0x00\n        /* \"#utility.yul\":2360:2369   */\n      dup4\n        /* \"#utility.yul\":2356:2373   */\n      add\n        /* \"#utility.yul\":2349:2396   */\n      mstore\n        /* \"#utility.yul\":2413:2544   */\n      tag_70\n        /* \"#utility.yul\":2539:2543   */\n      dup2\n        /* \"#utility.yul\":2413:2544   */\n      tag_56\n      jump\t// in\n    tag_70:\n        /* \"#utility.yul\":2405:2544   */\n      swap1\n      pop\n        /* \"#utility.yul\":2132:2551   */\n      swap2\n      swap1\n      pop\n      jump\t// out\n        /* \"#utility.yul\":2557:2779   */\n    tag_17:\n        /* \"#utility.yul\":2650:2654   */\n      0x00\n        /* \"#utility.yul\":2688:2690   */\n      0x20\n        /* \"#utility.yul\":2677:2686   */\n      dup3\n        /* \"#utility.yul\":2673:2691   */\n      add\n        /* \"#utility.yul\":2665:2691   */\n      swap1\n      pop\n        /* \"#utility.yul\":2701:2772   */\n      tag_72\n        /* \"#utility.yul\":2769:2770   */\n      0x00\n        /* \"#utility.yul\":2758:2767   */\n      dup4\n        /* \"#utility.yul\":2754:2771   */\n      add\n        /* \"#utility.yul\":2745:2751   */\n      dup5\n        /* \"#utility.yul\":2701:2772   */\n      tag_61\n      jump\t// in\n    tag_72:\n        /* \"#utility.yul\":2557:2779   */\n      swap3\n      swap2\n      pop\n      pop\n      jump\t// out\n        /* \"#utility.yul\":2866:3035   */\n    tag_53:\n        /* \"#utility.yul\":2950:2961   */\n      0x00\n        /* \"#utility.yul\":2984:2990   */\n      dup3\n        /* \"#utility.yul\":2979:2982   */\n      dup3\n        /* \"#utility.yul\":2972:2991   */\n      mstore\n        /* \"#utility.yul\":3024:3028   */\n      0x20\n        /* \"#utility.yul\":3019:3022   */\n      dup3\n        /* \"#utility.yul\":3015:3029   */\n      add\n        /* \"#utility.yul\":3000:3029   */\n      swap1\n      pop\n        /* \"#utility.yul\":2866:3035   */\n      swap3\n      swap2\n      pop\n      pop\n      jump\t// out\n        /* \"#utility.yul\":3041:3346   */\n    tag_27:\n        /* \"#utility.yul\":3081:3084   */\n      0x00\n        /* \"#utility.yul\":3100:3120   */\n      tag_77\n        /* \"#utility.yul\":3118:3119   */\n      dup3\n        /* \"#utility.yul\":3100:3120   */\n      tag_64\n      jump\t// in\n    tag_77:\n        /* \"#utility.yul\":3095:3120   */\n      swap2\n      pop\n        /* \"#utility.yul\":3134:3154   */\n      tag_78\n        /* \"#utility.yul\":3152:3153   */\n      dup4\n        /* \"#utility.yul\":3134:3154   */\n      tag_64\n      jump\t// in\n    tag_78:\n        /* \"#utility.yul\":3129:3154   */\n      swap3\n      pop\n        /* \"#utility.yul\":3288:3289   */\n      dup3\n        /* \"#utility.yul\":3220:3286   */\n      0xffffffffffffffffffffffffffffffffffffffffffffffffffffffffffffffff\n        /* \"#utility.yul\":3216:3290   */\n      sub\n        /* \"#utility.yul\":3213:3214   */\n      dup3\n        /* \"#utility.yul\":3210:3291   */\n      gt\n        /* \"#utility.yul\":3207:3314   */\n      iszero\n      tag_79\n      jumpi\n        /* \"#utility.yul\":3294:3312   */\n      tag_80\n      tag_81\n      jump\t// in\n    tag_80:\n        /* \"#utility.yul\":3207:3314   */\n    tag_79:\n        /* \"#utility.yul\":3338:3339   */\n      dup3\n        /* \"#utility.yul\":3335:3336   */\n      dup3\n        /* \"#utility.yul\":3331:3340   */\n      add\n        /* \"#utility.yul\":3324:3340   */\n      swap1\n      pop\n        /* \"#utility.yul\":3041:3346   */\n      swap3\n      swap2\n      pop\n      pop\n      jump\t// out\n        /* \"#utility.yul\":3352:3448   */\n    tag_49:\n        /* \"#utility.yul\":3389:3396   */\n      0x00\n        /* \"#utility.yul\":3418:3442   */\n      tag_83\n        /* \"#utility.yul\":3436:3441   */\n      dup3\n        /* \"#utility.yul\":3418:3442   */\n      tag_84\n      jump\t// in\n    tag_83:\n        /* \"#utility.yul\":3407:3442   */\n      swap1\n      pop\n        /* \"#utility.yul\":3352:3448   */\n      swap2\n      swap1\n      pop\n      jump\t// out\n        /* \"#utility.yul\":3454:3580   */\n    tag_84:\n        /* \"#utility.yul\":3491:3498   */\n      0x00\n        /* \"#utility.yul\":3531:3573   */\n      0xffffffffffffffffffffffffffffffffffffffff\n        /* \"#utility.yul\":3524:3529   */\n      dup3\n        /* \"#utility.yul\":3520:3574   */\n      and\n        /* \"#utility.yul\":3509:3574   */\n      swap1\n      pop\n        /* \"#utility.yul\":3454:3580   */\n      swap2\n      swap1\n      pop\n      jump\t// out\n        /* \"#utility.yul\":3586:3663   */\n    tag_64:\n        /* \"#utility.yul\":3623:3630   */\n      0x00\n        /* \"#utility.yul\":3652:3657   */\n      dup2\n        /* \"#utility.yul\":3641:3657   */\n      swap1\n      pop\n        /* \"#utility.yul\":3586:3663   */\n      swap2\n      swap1\n      pop\n      jump\t// out\n        /* \"#utility.yul\":3669:3849   */\n    tag_81:\n        /* \"#utility.yul\":3717:3794   */\n      0x4e487b7100000000000000000000000000000000000000000000000000000000\n        /* \"#utility.yul\":3714:3715   */\n      0x00\n        /* \"#utility.yul\":3707:3795   */\n      mstore\n        /* \"#utility.yul\":3814:3818   */\n      0x11\n        /* \"#utility.yul\":3811:3812   */\n      0x04\n        /* \"#utility.yul\":3804:3819   */\n      mstore\n        /* \"#utility.yul\":3838:3842   */\n      0x24\n        /* \"#utility.yul\":3835:3836   */\n      0x00\n        /* \"#utility.yul\":3828:3843   */\n      revert\n        /* \"#utility.yul\":3978:4095   */\n    tag_44:\n        /* \"#utility.yul\":4087:4088   */\n      0x00\n        /* \"#utility.yul\":4084:4085   */\n      dup1\n        /* \"#utility.yul\":4077:4089   */\n      revert\n        /* \"#utility.yul\":4101:4280   */\n    tag_55:\n        /* \"#utility.yul\":4241:4272   */\n      0x4c612061707565737461206465626520736572206d61796f7220612030000000\n        /* \"#utility.yul\":4237:4238   */\n      0x00\n        /* \"#utility.yul\":4229:4235   */\n      dup3\n        /* \"#utility.yul\":4225:4239   */\n      add\n        /* \"#utility.yul\":4218:4273   */\n      mstore\n        /* \"#utility.yul\":4101:4280   */\n      pop\n      jump\t// out\n        /* \"#utility.yul\":4286:4458   */\n    tag_60:\n        /* \"#utility.yul\":4426:4450   */\n      0x5469656e65206c612061707565737461206d61796f7200000000000000000000\n        /* \"#utility.yul\":4422:4423   */\n      0x00\n        /* \"#utility.yul\":4414:4420   */\n      dup3\n        /* \"#utility.yul\":4410:4424   */\n      add\n        /* \"#utility.yul\":4403:4451   */\n      mstore\n        /* \"#utility.yul\":4286:4458   */\n      pop\n      jump\t// out\n        /* \"#utility.yul\":4464:4586   */\n    tag_40:\n        /* \"#utility.yul\":4537:4561   */\n      tag_94\n        /* \"#utility.yul\":4555:4560   */\n      dup2\n        /* \"#utility.yul\":4537:4561   */\n      tag_49\n      jump\t// in\n    tag_94:\n        /* \"#utility.yul\":4530:4535   */\n      dup2\n        /* \"#utility.yul\":4527:4562   */\n      eq\n        /* \"#utility.yul\":4517:4580   */\n      tag_95\n      jumpi\n        /* \"#utility.yul\":4576:4577   */\n      0x00\n        /* \"#utility.yul\":4573:4574   */\n      dup1\n        /* \"#utility.yul\":4566:4578   */\n      revert\n        /* \"#utility.yul\":4517:4580   */\n    tag_95:\n        /* \"#utility.yul\":4464:4586   */\n      pop\n      jump\t// out\n\n    auxdata: 0xa2646970667358221220bb35b09cfa305498bc0c1abe4eca7d40c1a71bca42682473b823100b2ff0a57664736f6c63430008070033\n}\n",
				"bytecode": {
					"linkReferences": {},
					"object": "608060405234801561001057600080fd5b50610552806100206000396000f3fe60806040526004361061003f5760003560e01c80630c0b842e146100445780632c0c13861461006f5780633e77756814610079578063ca946857146100a4575b600080fd5b34801561005057600080fd5b506100596100e1565b6040516100669190610366565b60405180910390f35b61007761010b565b005b34801561008557600080fd5b5061008e61026e565b60405161009b91906103c1565b60405180910390f35b3480156100b057600080fd5b506100cb60048036038101906100c691906102d5565b610278565b6040516100d891906103c1565b60405180910390f35b6000600260009054906101000a900473ffffffffffffffffffffffffffffffffffffffff16905090565b6000346000803373ffffffffffffffffffffffffffffffffffffffff1673ffffffffffffffffffffffffffffffffffffffff1681526020019081526020016000205461015791906103ed565b90506000341061019c576040517f08c379a000000000000000000000000000000000000000000000000000000000815260040161019390610381565b60405180910390fd5b60015481116101e0576040517f08c379a00000000000000000000000000000000000000000000000000000000081526004016101d7906103a1565b60405180910390fd5b806000803373ffffffffffffffffffffffffffffffffffffffff1673ffffffffffffffffffffffffffffffffffffffff168152602001908152602001600020819055508060018190555033600260006101000a81548173ffffffffffffffffffffffffffffffffffffffff021916908373ffffffffffffffffffffffffffffffffffffffff16021790555050565b6000600154905090565b60008060008373ffffffffffffffffffffffffffffffffffffffff1673ffffffffffffffffffffffffffffffffffffffff168152602001908152602001600020549050919050565b6000813590506102cf81610505565b92915050565b6000602082840312156102eb576102ea6104ae565b5b60006102f9848285016102c0565b91505092915050565b61030b81610443565b82525050565b600061031e601d836103dc565b9150610329826104b3565b602082019050919050565b60006103416016836103dc565b915061034c826104dc565b602082019050919050565b61036081610475565b82525050565b600060208201905061037b6000830184610302565b92915050565b6000602082019050818103600083015261039a81610311565b9050919050565b600060208201905081810360008301526103ba81610334565b9050919050565b60006020820190506103d66000830184610357565b92915050565b600082825260208201905092915050565b60006103f882610475565b915061040383610475565b9250827fffffffffffffffffffffffffffffffffffffffffffffffffffffffffffffffff038211156104385761043761047f565b5b828201905092915050565b600061044e82610455565b9050919050565b600073ffffffffffffffffffffffffffffffffffffffff82169050919050565b6000819050919050565b7f4e487b7100000000000000000000000000000000000000000000000000000000600052601160045260246000fd5b600080fd5b7f4c612061707565737461206465626520736572206d61796f7220612030000000600082015250565b7f5469656e65206c612061707565737461206d61796f7200000000000000000000600082015250565b61050e81610443565b811461051957600080fd5b5056fea2646970667358221220bb35b09cfa305498bc0c1abe4eca7d40c1a71bca42682473b823100b2ff0a57664736f6c63430008070033",
					"opcodes": "PUSH1 0x80 PUSH1 0x40 MSTORE CALLVALUE DUP1 ISZERO PUSH2 0x10 JUMPI PUSH1 0x0 DUP1 REVERT JUMPDEST POP PUSH2 0x552 DUP1 PUSH2 0x20 PUSH1 0x0 CODECOPY PUSH1 0x0 RETURN INVALID PUSH1 0x80 PUSH1 0x40 MSTORE PUSH1 0x4 CALLDATASIZE LT PUSH2 0x3F JUMPI PUSH1 0x0 CALLDATALOAD PUSH1 0xE0 SHR DUP1 PUSH4 0xC0B842E EQ PUSH2 0x44 JUMPI DUP1 PUSH4 0x2C0C1386 EQ PUSH2 0x6F JUMPI DUP1 PUSH4 0x3E777568 EQ PUSH2 0x79 JUMPI DUP1 PUSH4 0xCA946857 EQ PUSH2 0xA4 JUMPI JUMPDEST PUSH1 0x0 DUP1 REVERT JUMPDEST CALLVALUE DUP1 ISZERO PUSH2 0x50 JUMPI PUSH1 0x0 DUP1 REVERT JUMPDEST POP PUSH2 0x59 PUSH2 0xE1 JUMP JUMPDEST PUSH1 0x40 MLOAD PUSH2 0x66 SWAP2 SWAP1 PUSH2 0x366 JUMP JUMPDEST PUSH1 0x40 MLOAD DUP1 SWAP2 SUB SWAP1 RETURN JUMPDEST PUSH2 0x77 PUSH2 0x10B JUMP JUMPDEST STOP JUMPDEST CALLVALUE DUP1 ISZERO PUSH2 0x85 JUMPI PUSH1 0x0 DUP1 REVERT JUMPDEST POP PUSH2 0x8E PUSH2 0x26E JUMP JUMPDEST PUSH1 0x40 MLOAD PUSH2 0x9B SWAP2 SWAP1 PUSH2 0x3C1 JUMP JUMPDEST PUSH1 0x40 MLOAD DUP1 SWAP2 SUB SWAP1 RETURN JUMPDEST CALLVALUE DUP1 ISZERO PUSH2 0xB0 JUMPI PUSH1 0x0 DUP1 REVERT JUMPDEST POP PUSH2 0xCB PUSH1 0x4 DUP1 CALLDATASIZE SUB DUP2 ADD SWAP1 PUSH2 0xC6 SWAP2 SWAP1 PUSH2 0x2D5 JUMP JUMPDEST PUSH2 0x278 JUMP JUMPDEST PUSH1 0x40 MLOAD PUSH2 0xD8 SWAP2 SWAP1 PUSH2 0x3C1 JUMP JUMPDEST PUSH1 0x40 MLOAD DUP1 SWAP2 SUB SWAP1 RETURN JUMPDEST PUSH1 0x0 PUSH1 0x2 PUSH1 0x0 SWAP1 SLOAD SWAP1 PUSH2 0x100 EXP SWAP1 DIV PUSH20 0xFFFFFFFFFFFFFFFFFFFFFFFFFFFFFFFFFFFFFFFF AND SWAP1 POP SWAP1 JUMP JUMPDEST PUSH1 0x0 CALLVALUE PUSH1 0x0 DUP1 CALLER PUSH20 0xFFFFFFFFFFFFFFFFFFFFFFFFFFFFFFFFFFFFFFFF AND PUSH20 0xFFFFFFFFFFFFFFFFFFFFFFFFFFFFFFFFFFFFFFFF AND DUP2 MSTORE PUSH1 0x20 ADD SWAP1 DUP2 MSTORE PUSH1 0x20 ADD PUSH1 0x0 KECCAK256 SLOAD PUSH2 0x157 SWAP2 SWAP1 PUSH2 0x3ED JUMP JUMPDEST SWAP1 POP PUSH1 0x0 CALLVALUE LT PUSH2 0x19C JUMPI PUSH1 0x40 MLOAD PUSH32 0x8C379A000000000000000000000000000000000000000000000000000000000 DUP2 MSTORE PUSH1 0x4 ADD PUSH2 0x193 SWAP1 PUSH2 0x381 JUMP JUMPDEST PUSH1 0x40 MLOAD DUP1 SWAP2 SUB SWAP1 REVERT JUMPDEST PUSH1 0x1 SLOAD DUP2 GT PUSH2 0x1E0 JUMPI PUSH1 0x40 MLOAD PUSH32 0x8C379A000000000000000000000000000000000000000000000000000000000 DUP2 MSTORE PUSH1 0x4 ADD PUSH2 0x1D7 SWAP1 PUSH2 0x3A1 JUMP JUMPDEST PUSH1 0x40 MLOAD DUP1 SWAP2 SUB SWAP1 REVERT JUMPDEST DUP1 PUSH1 0x0 DUP1 CALLER PUSH20 0xFFFFFFFFFFFFFFFFFFFFFFFFFFFFFFFFFFFFFFFF AND PUSH20 0xFFFFFFFFFFFFFFFFFFFFFFFFFFFFFFFFFFFFFFFF AND DUP2 MSTORE PUSH1 0x20 ADD SWAP1 DUP2 MSTORE PUSH1 0x20 ADD PUSH1 0x0 KECCAK256 DUP2 SWAP1 SSTORE POP DUP1 PUSH1 0x1 DUP2 SWAP1 SSTORE POP CALLER PUSH1 0x2 PUSH1 0x0 PUSH2 0x100 EXP DUP2 SLOAD DUP2 PUSH20 0xFFFFFFFFFFFFFFFFFFFFFFFFFFFFFFFFFFFFFFFF MUL NOT AND SWAP1 DUP4 PUSH20 0xFFFFFFFFFFFFFFFFFFFFFFFFFFFFFFFFFFFFFFFF AND MUL OR SWAP1 SSTORE POP POP JUMP JUMPDEST PUSH1 0x0 PUSH1 0x1 SLOAD SWAP1 POP SWAP1 JUMP JUMPDEST PUSH1 0x0 DUP1 PUSH1 0x0 DUP4 PUSH20 0xFFFFFFFFFFFFFFFFFFFFFFFFFFFFFFFFFFFFFFFF AND PUSH20 0xFFFFFFFFFFFFFFFFFFFFFFFFFFFFFFFFFFFFFFFF AND DUP2 MSTORE PUSH1 0x20 ADD SWAP1 DUP2 MSTORE PUSH1 0x20 ADD PUSH1 0x0 KECCAK256 SLOAD SWAP1 POP SWAP2 SWAP1 POP JUMP JUMPDEST PUSH1 0x0 DUP2 CALLDATALOAD SWAP1 POP PUSH2 0x2CF DUP2 PUSH2 0x505 JUMP JUMPDEST SWAP3 SWAP2 POP POP JUMP JUMPDEST PUSH1 0x0 PUSH1 0x20 DUP3 DUP5 SUB SLT ISZERO PUSH2 0x2EB JUMPI PUSH2 0x2EA PUSH2 0x4AE JUMP JUMPDEST JUMPDEST PUSH1 0x0 PUSH2 0x2F9 DUP5 DUP3 DUP6 ADD PUSH2 0x2C0 JUMP JUMPDEST SWAP2 POP POP SWAP3 SWAP2 POP POP JUMP JUMPDEST PUSH2 0x30B DUP2 PUSH2 0x443 JUMP JUMPDEST DUP3 MSTORE POP POP JUMP JUMPDEST PUSH1 0x0 PUSH2 0x31E PUSH1 0x1D DUP4 PUSH2 0x3DC JUMP JUMPDEST SWAP2 POP PUSH2 0x329 DUP3 PUSH2 0x4B3 JUMP JUMPDEST PUSH1 0x20 DUP3 ADD SWAP1 POP SWAP2 SWAP1 POP JUMP JUMPDEST PUSH1 0x0 PUSH2 0x341 PUSH1 0x16 DUP4 PUSH2 0x3DC JUMP JUMPDEST SWAP2 POP PUSH2 0x34C DUP3 PUSH2 0x4DC JUMP JUMPDEST PUSH1 0x20 DUP3 ADD SWAP1 POP SWAP2 SWAP1 POP JUMP JUMPDEST PUSH2 0x360 DUP2 PUSH2 0x475 JUMP JUMPDEST DUP3 MSTORE POP POP JUMP JUMPDEST PUSH1 0x0 PUSH1 0x20 DUP3 ADD SWAP1 POP PUSH2 0x37B PUSH1 0x0 DUP4 ADD DUP5 PUSH2 0x302 JUMP JUMPDEST SWAP3 SWAP2 POP POP JUMP JUMPDEST PUSH1 0x0 PUSH1 0x20 DUP3 ADD SWAP1 POP DUP2 DUP2 SUB PUSH1 0x0 DUP4 ADD MSTORE PUSH2 0x39A DUP2 PUSH2 0x311 JUMP JUMPDEST SWAP1 POP SWAP2 SWAP1 POP JUMP JUMPDEST PUSH1 0x0 PUSH1 0x20 DUP3 ADD SWAP1 POP DUP2 DUP2 SUB PUSH1 0x0 DUP4 ADD MSTORE PUSH2 0x3BA DUP2 PUSH2 0x334 JUMP JUMPDEST SWAP1 POP SWAP2 SWAP1 POP JUMP JUMPDEST PUSH1 0x0 PUSH1 0x20 DUP3 ADD SWAP1 POP PUSH2 0x3D6 PUSH1 0x0 DUP4 ADD DUP5 PUSH2 0x357 JUMP JUMPDEST SWAP3 SWAP2 POP POP JUMP JUMPDEST PUSH1 0x0 DUP3 DUP3 MSTORE PUSH1 0x20 DUP3 ADD SWAP1 POP SWAP3 SWAP2 POP POP JUMP JUMPDEST PUSH1 0x0 PUSH2 0x3F8 DUP3 PUSH2 0x475 JUMP JUMPDEST SWAP2 POP PUSH2 0x403 DUP4 PUSH2 0x475 JUMP JUMPDEST SWAP3 POP DUP3 PUSH32 0xFFFFFFFFFFFFFFFFFFFFFFFFFFFFFFFFFFFFFFFFFFFFFFFFFFFFFFFFFFFFFFFF SUB DUP3 GT ISZERO PUSH2 0x438 JUMPI PUSH2 0x437 PUSH2 0x47F JUMP JUMPDEST JUMPDEST DUP3 DUP3 ADD SWAP1 POP SWAP3 SWAP2 POP POP JUMP JUMPDEST PUSH1 0x0 PUSH2 0x44E DUP3 PUSH2 0x455 JUMP JUMPDEST SWAP1 POP SWAP2 SWAP1 POP JUMP JUMPDEST PUSH1 0x0 PUSH20 0xFFFFFFFFFFFFFFFFFFFFFFFFFFFFFFFFFFFFFFFF DUP3 AND SWAP1 POP SWAP2 SWAP1 POP JUMP JUMPDEST PUSH1 0x0 DUP2 SWAP1 POP SWAP2 SWAP1 POP JUMP JUMPDEST PUSH32 0x4E487B7100000000000000000000000000000000000000000000000000000000 PUSH1 0x0 MSTORE PUSH1 0x11 PUSH1 0x4 MSTORE PUSH1 0x24 PUSH1 0x0 REVERT JUMPDEST PUSH1 0x0 DUP1 REVERT JUMPDEST PUSH32 0x4C612061707565737461206465626520736572206D61796F7220612030000000 PUSH1 0x0 DUP3 ADD MSTORE POP JUMP JUMPDEST PUSH32 0x5469656E65206C612061707565737461206D61796F7200000000000000000000 PUSH1 0x0 DUP3 ADD MSTORE POP JUMP JUMPDEST PUSH2 0x50E DUP2 PUSH2 0x443 JUMP JUMPDEST DUP2 EQ PUSH2 0x519 JUMPI PUSH1 0x0 DUP1 REVERT JUMPDEST POP JUMP INVALID LOG2 PUSH5 0x6970667358 0x22 SLT KECCAK256 0xBB CALLDATALOAD 0xB0 SWAP13 STATICCALL ADDRESS SLOAD SWAP9 0xBC 0xC BYTE 0xBE 0x4E 0xCA PUSH30 0x40C1A71BCA42682473B823100B2FF0A57664736F6C634300080700330000 "
				},
				"gasEstimates": {
					"creation": {
						"codeDepositCost": "272400",
						"executionCost": "312",
						"totalCost": "272712"
					},
					"external": {
						"ApuestaMayor()": "2459",
						"MayorPostorAddr()": "2500",
						"agregarApuesta()": "infinite",
						"obtenerContratoBalance(address)": "2885"
					}
				},
				"methodIdentifiers": {
					"ApuestaMayor()": "3e777568",
					"MayorPostorAddr()": "0c0b842e",
					"agregarApuesta()": "2c0c1386",
					"obtenerContratoBalance(address)": "ca946857"
				}
			},
			"storageLayout": {
				"storage": [
					{
						"astId": 5,
						"contract": "backend/Auction/Subasta.sol:Subasta",
						"label": "postoresData",
						"offset": 0,
						"slot": "0",
						"type": "t_mapping(t_address,t_uint256)"
					},
					{
						"astId": 7,
						"contract": "backend/Auction/Subasta.sol:Subasta",
						"label": "apuestaMayor",
						"offset": 0,
						"slot": "1",
						"type": "t_uint256"
					},
					{
						"astId": 9,
						"contract": "backend/Auction/Subasta.sol:Subasta",
						"label": "postorMayor",
						"offset": 0,
						"slot": "2",
						"type": "t_address"
					}
				],
				"types": {
					"t_address": {
						"encoding": "inplace",
						"label": "address",
						"numberOfBytes": "20"
					},
					"t_mapping(t_address,t_uint256)": {
						"encoding": "mapping",
						"key": "t_address",
						"label": "mapping(address => uint256)",
						"numberOfBytes": "32",
						"value": "t_uint256"
					},
					"t_uint256": {
						"encoding": "inplace",
						"label": "uint256",
						"numberOfBytes": "32"
					}
				}
			},
			"userdoc": {
				"kind": "user",
				"methods": {},
				"version": 1
			}
		}
	}
}