{
	"backend/Auction/Subasta.sol": {
		"Subasta": {
			"abi": [
				{
					"inputs": [],
					"name": "agregarApuesta",
					"outputs": [],
					"stateMutability": "payable",
					"type": "function"
				},
				{
					"inputs": [
						{
							"internalType": "address",
							"name": "_address",
							"type": "address"
						}
					],
					"name": "obtenerContratoBalance",
					"outputs": [
						{
							"internalType": "uint256",
							"name": "",
							"type": "uint256"
						}
					],
					"stateMutability": "view",
					"type": "function"
				}
			],
			"devdoc": {
				"kind": "dev",
				"methods": {},
				"version": 1
			},
			"evm": {
				"assembly": "    /* \"backend/Auction/Subasta.sol\":72:657  contract Subasta{\r... */\n  mstore(0x40, 0x80)\n  callvalue\n  dup1\n  iszero\n  tag_1\n  jumpi\n  0x00\n  dup1\n  revert\ntag_1:\n  pop\n  dataSize(sub_0)\n  dup1\n  dataOffset(sub_0)\n  0x00\n  codecopy\n  0x00\n  return\nstop\n\nsub_0: assembly {\n        /* \"backend/Auction/Subasta.sol\":72:657  contract Subasta{\r... */\n      mstore(0x40, 0x80)\n      jumpi(tag_1, lt(calldatasize, 0x04))\n      shr(0xe0, calldataload(0x00))\n      dup1\n      0x2c0c1386\n      eq\n      tag_2\n      jumpi\n      dup1\n      0xca946857\n      eq\n      tag_3\n      jumpi\n    tag_1:\n      0x00\n      dup1\n      revert\n        /* \"backend/Auction/Subasta.sol\":174:385  function agregarApuesta() public payable{\r... */\n    tag_2:\n      tag_4\n      tag_5\n      jump\t// in\n    tag_4:\n      stop\n        /* \"backend/Auction/Subasta.sol\":442:565  function obtenerContratoBalance(address _address) public view returns(uint){\r... */\n    tag_3:\n      callvalue\n      dup1\n      iszero\n      tag_6\n      jumpi\n      0x00\n      dup1\n      revert\n    tag_6:\n      pop\n      tag_7\n      0x04\n      dup1\n      calldatasize\n      sub\n      dup2\n      add\n      swap1\n      tag_8\n      swap2\n      swap1\n      tag_9\n      jump\t// in\n    tag_8:\n      tag_10\n      jump\t// in\n    tag_7:\n      mload(0x40)\n      tag_11\n      swap2\n      swap1\n      tag_12\n      jump\t// in\n    tag_11:\n      mload(0x40)\n      dup1\n      swap2\n      sub\n      swap1\n      return\n        /* \"backend/Auction/Subasta.sol\":174:385  function agregarApuesta() public payable{\r... */\n    tag_5:\n        /* \"backend/Auction/Subasta.sol\":295:296  0 */\n      0x00\n        /* \"backend/Auction/Subasta.sol\":283:292  msg.value */\n      callvalue\n        /* \"backend/Auction/Subasta.sol\":283:296  msg.value < 0 */\n      lt\n        /* \"backend/Auction/Subasta.sol\":275:330  require(msg.value < 0, \"La apuesta debe ser mayor a 0\") */\n      tag_14\n      jumpi\n      mload(0x40)\n      0x08c379a000000000000000000000000000000000000000000000000000000000\n      dup2\n      mstore\n      0x04\n      add\n      tag_15\n      swap1\n      tag_16\n      jump\t// in\n    tag_15:\n      mload(0x40)\n      dup1\n      swap2\n      sub\n      swap1\n      revert\n    tag_14:\n        /* \"backend/Auction/Subasta.sol\":368:377  msg.value */\n      callvalue\n        /* \"backend/Auction/Subasta.sol\":341:353  postoresData */\n      0x00\n        /* \"backend/Auction/Subasta.sol\":341:365  postoresData[msg.sender] */\n      dup1\n        /* \"backend/Auction/Subasta.sol\":354:364  msg.sender */\n      caller\n        /* \"backend/Auction/Subasta.sol\":341:365  postoresData[msg.sender] */\n      0xffffffffffffffffffffffffffffffffffffffff\n      and\n      0xffffffffffffffffffffffffffffffffffffffff\n      and\n      dup2\n      mstore\n      0x20\n      add\n      swap1\n      dup2\n      mstore\n      0x20\n      add\n      0x00\n      keccak256\n        /* \"backend/Auction/Subasta.sol\":341:377  postoresData[msg.sender] = msg.value */\n      dup2\n      swap1\n      sstore\n      pop\n        /* \"backend/Auction/Subasta.sol\":174:385  function agregarApuesta() public payable{\r... */\n      jump\t// out\n        /* \"backend/Auction/Subasta.sol\":442:565  function obtenerContratoBalance(address _address) public view returns(uint){\r... */\n    tag_10:\n        /* \"backend/Auction/Subasta.sol\":512:516  uint */\n      0x00\n        /* \"backend/Auction/Subasta.sol\":535:547  postoresData */\n      dup1\n        /* \"backend/Auction/Subasta.sol\":535:557  postoresData[_address] */\n      0x00\n        /* \"backend/Auction/Subasta.sol\":548:556  _address */\n      dup4\n        /* \"backend/Auction/Subasta.sol\":535:557  postoresData[_address] */\n      0xffffffffffffffffffffffffffffffffffffffff\n      and\n      0xffffffffffffffffffffffffffffffffffffffff\n      and\n      dup2\n      mstore\n      0x20\n      add\n      swap1\n      dup2\n      mstore\n      0x20\n      add\n      0x00\n      keccak256\n      sload\n        /* \"backend/Auction/Subasta.sol\":528:557  return postoresData[_address] */\n      swap1\n      pop\n        /* \"backend/Auction/Subasta.sol\":442:565  function obtenerContratoBalance(address _address) public view returns(uint){\r... */\n      swap2\n      swap1\n      pop\n      jump\t// out\n        /* \"#utility.yul\":7:146   */\n    tag_19:\n        /* \"#utility.yul\":53:58   */\n      0x00\n        /* \"#utility.yul\":91:97   */\n      dup2\n        /* \"#utility.yul\":78:98   */\n      calldataload\n        /* \"#utility.yul\":69:98   */\n      swap1\n      pop\n        /* \"#utility.yul\":107:140   */\n      tag_21\n        /* \"#utility.yul\":134:139   */\n      dup2\n        /* \"#utility.yul\":107:140   */\n      tag_22\n      jump\t// in\n    tag_21:\n        /* \"#utility.yul\":7:146   */\n      swap3\n      swap2\n      pop\n      pop\n      jump\t// out\n        /* \"#utility.yul\":152:481   */\n    tag_9:\n        /* \"#utility.yul\":211:217   */\n      0x00\n        /* \"#utility.yul\":260:262   */\n      0x20\n        /* \"#utility.yul\":248:257   */\n      dup3\n        /* \"#utility.yul\":239:246   */\n      dup5\n        /* \"#utility.yul\":235:258   */\n      sub\n        /* \"#utility.yul\":231:263   */\n      slt\n        /* \"#utility.yul\":228:347   */\n      iszero\n      tag_24\n      jumpi\n        /* \"#utility.yul\":266:345   */\n      tag_25\n      tag_26\n      jump\t// in\n    tag_25:\n        /* \"#utility.yul\":228:347   */\n    tag_24:\n        /* \"#utility.yul\":386:387   */\n      0x00\n        /* \"#utility.yul\":411:464   */\n      tag_27\n        /* \"#utility.yul\":456:463   */\n      dup5\n        /* \"#utility.yul\":447:453   */\n      dup3\n        /* \"#utility.yul\":436:445   */\n      dup6\n        /* \"#utility.yul\":432:454   */\n      add\n        /* \"#utility.yul\":411:464   */\n      tag_19\n      jump\t// in\n    tag_27:\n        /* \"#utility.yul\":401:464   */\n      swap2\n      pop\n        /* \"#utility.yul\":357:474   */\n      pop\n        /* \"#utility.yul\":152:481   */\n      swap3\n      swap2\n      pop\n      pop\n      jump\t// out\n        /* \"#utility.yul\":487:853   */\n    tag_28:\n        /* \"#utility.yul\":629:632   */\n      0x00\n        /* \"#utility.yul\":650:717   */\n      tag_30\n        /* \"#utility.yul\":714:716   */\n      0x1d\n        /* \"#utility.yul\":709:712   */\n      dup4\n        /* \"#utility.yul\":650:717   */\n      tag_31\n      jump\t// in\n    tag_30:\n        /* \"#utility.yul\":643:717   */\n      swap2\n      pop\n        /* \"#utility.yul\":726:819   */\n      tag_32\n        /* \"#utility.yul\":815:818   */\n      dup3\n        /* \"#utility.yul\":726:819   */\n      tag_33\n      jump\t// in\n    tag_32:\n        /* \"#utility.yul\":844:846   */\n      0x20\n        /* \"#utility.yul\":839:842   */\n      dup3\n        /* \"#utility.yul\":835:847   */\n      add\n        /* \"#utility.yul\":828:847   */\n      swap1\n      pop\n        /* \"#utility.yul\":487:853   */\n      swap2\n      swap1\n      pop\n      jump\t// out\n        /* \"#utility.yul\":859:977   */\n    tag_34:\n        /* \"#utility.yul\":946:970   */\n      tag_36\n        /* \"#utility.yul\":964:969   */\n      dup2\n        /* \"#utility.yul\":946:970   */\n      tag_37\n      jump\t// in\n    tag_36:\n        /* \"#utility.yul\":941:944   */\n      dup3\n        /* \"#utility.yul\":934:971   */\n      mstore\n        /* \"#utility.yul\":859:977   */\n      pop\n      pop\n      jump\t// out\n        /* \"#utility.yul\":983:1402   */\n    tag_16:\n        /* \"#utility.yul\":1149:1153   */\n      0x00\n        /* \"#utility.yul\":1187:1189   */\n      0x20\n        /* \"#utility.yul\":1176:1185   */\n      dup3\n        /* \"#utility.yul\":1172:1190   */\n      add\n        /* \"#utility.yul\":1164:1190   */\n      swap1\n      pop\n        /* \"#utility.yul\":1236:1245   */\n      dup2\n        /* \"#utility.yul\":1230:1234   */\n      dup2\n        /* \"#utility.yul\":1226:1246   */\n      sub\n        /* \"#utility.yul\":1222:1223   */\n      0x00\n        /* \"#utility.yul\":1211:1220   */\n      dup4\n        /* \"#utility.yul\":1207:1224   */\n      add\n        /* \"#utility.yul\":1200:1247   */\n      mstore\n        /* \"#utility.yul\":1264:1395   */\n      tag_39\n        /* \"#utility.yul\":1390:1394   */\n      dup2\n        /* \"#utility.yul\":1264:1395   */\n      tag_28\n      jump\t// in\n    tag_39:\n        /* \"#utility.yul\":1256:1395   */\n      swap1\n      pop\n        /* \"#utility.yul\":983:1402   */\n      swap2\n      swap1\n      pop\n      jump\t// out\n        /* \"#utility.yul\":1408:1630   */\n    tag_12:\n        /* \"#utility.yul\":1501:1505   */\n      0x00\n        /* \"#utility.yul\":1539:1541   */\n      0x20\n        /* \"#utility.yul\":1528:1537   */\n      dup3\n        /* \"#utility.yul\":1524:1542   */\n      add\n        /* \"#utility.yul\":1516:1542   */\n      swap1\n      pop\n        /* \"#utility.yul\":1552:1623   */\n      tag_41\n        /* \"#utility.yul\":1620:1621   */\n      0x00\n        /* \"#utility.yul\":1609:1618   */\n      dup4\n        /* \"#utility.yul\":1605:1622   */\n      add\n        /* \"#utility.yul\":1596:1602   */\n      dup5\n        /* \"#utility.yul\":1552:1623   */\n      tag_34\n      jump\t// in\n    tag_41:\n        /* \"#utility.yul\":1408:1630   */\n      swap3\n      swap2\n      pop\n      pop\n      jump\t// out\n        /* \"#utility.yul\":1717:1886   */\n    tag_31:\n        /* \"#utility.yul\":1801:1812   */\n      0x00\n        /* \"#utility.yul\":1835:1841   */\n      dup3\n        /* \"#utility.yul\":1830:1833   */\n      dup3\n        /* \"#utility.yul\":1823:1842   */\n      mstore\n        /* \"#utility.yul\":1875:1879   */\n      0x20\n        /* \"#utility.yul\":1870:1873   */\n      dup3\n        /* \"#utility.yul\":1866:1880   */\n      add\n        /* \"#utility.yul\":1851:1880   */\n      swap1\n      pop\n        /* \"#utility.yul\":1717:1886   */\n      swap3\n      swap2\n      pop\n      pop\n      jump\t// out\n        /* \"#utility.yul\":1892:1988   */\n    tag_45:\n        /* \"#utility.yul\":1929:1936   */\n      0x00\n        /* \"#utility.yul\":1958:1982   */\n      tag_47\n        /* \"#utility.yul\":1976:1981   */\n      dup3\n        /* \"#utility.yul\":1958:1982   */\n      tag_48\n      jump\t// in\n    tag_47:\n        /* \"#utility.yul\":1947:1982   */\n      swap1\n      pop\n        /* \"#utility.yul\":1892:1988   */\n      swap2\n      swap1\n      pop\n      jump\t// out\n        /* \"#utility.yul\":1994:2120   */\n    tag_48:\n        /* \"#utility.yul\":2031:2038   */\n      0x00\n        /* \"#utility.yul\":2071:2113   */\n      0xffffffffffffffffffffffffffffffffffffffff\n        /* \"#utility.yul\":2064:2069   */\n      dup3\n        /* \"#utility.yul\":2060:2114   */\n      and\n        /* \"#utility.yul\":2049:2114   */\n      swap1\n      pop\n        /* \"#utility.yul\":1994:2120   */\n      swap2\n      swap1\n      pop\n      jump\t// out\n        /* \"#utility.yul\":2126:2203   */\n    tag_37:\n        /* \"#utility.yul\":2163:2170   */\n      0x00\n        /* \"#utility.yul\":2192:2197   */\n      dup2\n        /* \"#utility.yul\":2181:2197   */\n      swap1\n      pop\n        /* \"#utility.yul\":2126:2203   */\n      swap2\n      swap1\n      pop\n      jump\t// out\n        /* \"#utility.yul\":2332:2449   */\n    tag_26:\n        /* \"#utility.yul\":2441:2442   */\n      0x00\n        /* \"#utility.yul\":2438:2439   */\n      dup1\n        /* \"#utility.yul\":2431:2443   */\n      revert\n        /* \"#utility.yul\":2455:2634   */\n    tag_33:\n        /* \"#utility.yul\":2595:2626   */\n      0x4c612061707565737461206465626520736572206d61796f7220612030000000\n        /* \"#utility.yul\":2591:2592   */\n      0x00\n        /* \"#utility.yul\":2583:2589   */\n      dup3\n        /* \"#utility.yul\":2579:2593   */\n      add\n        /* \"#utility.yul\":2572:2627   */\n      mstore\n        /* \"#utility.yul\":2455:2634   */\n      pop\n      jump\t// out\n        /* \"#utility.yul\":2640:2762   */\n    tag_22:\n        /* \"#utility.yul\":2713:2737   */\n      tag_56\n        /* \"#utility.yul\":2731:2736   */\n      dup2\n        /* \"#utility.yul\":2713:2737   */\n      tag_45\n      jump\t// in\n    tag_56:\n        /* \"#utility.yul\":2706:2711   */\n      dup2\n        /* \"#utility.yul\":2703:2738   */\n      eq\n        /* \"#utility.yul\":2693:2756   */\n      tag_57\n      jumpi\n        /* \"#utility.yul\":2752:2753   */\n      0x00\n        /* \"#utility.yul\":2749:2750   */\n      dup1\n        /* \"#utility.yul\":2742:2754   */\n      revert\n        /* \"#utility.yul\":2693:2756   */\n    tag_57:\n        /* \"#utility.yul\":2640:2762   */\n      pop\n      jump\t// out\n\n    auxdata: 0xa264697066735822122036f0517bcfca6584007e2747211031d416b283a3071f971b1669a1b22b24897c64736f6c63430008070033\n}\n",
				"bytecode": {
					"linkReferences": {},
					"object": "608060405234801561001057600080fd5b506102bc806100206000396000f3fe6080604052600436106100295760003560e01c80632c0c13861461002e578063ca94685714610038575b600080fd5b610036610075565b005b34801561004457600080fd5b5061005f600480360381019061005a919061015a565b6100fd565b60405161006c91906101d9565b60405180910390f35b600034106100b8576040517f08c379a00000000000000000000000000000000000000000000000000000000081526004016100af906101b9565b60405180910390fd5b346000803373ffffffffffffffffffffffffffffffffffffffff1673ffffffffffffffffffffffffffffffffffffffff16815260200190815260200160002081905550565b60008060008373ffffffffffffffffffffffffffffffffffffffff1673ffffffffffffffffffffffffffffffffffffffff168152602001908152602001600020549050919050565b6000813590506101548161026f565b92915050565b6000602082840312156101705761016f610241565b5b600061017e84828501610145565b91505092915050565b6000610194601d836101f4565b915061019f82610246565b602082019050919050565b6101b381610237565b82525050565b600060208201905081810360008301526101d281610187565b9050919050565b60006020820190506101ee60008301846101aa565b92915050565b600082825260208201905092915050565b600061021082610217565b9050919050565b600073ffffffffffffffffffffffffffffffffffffffff82169050919050565b6000819050919050565b600080fd5b7f4c612061707565737461206465626520736572206d61796f7220612030000000600082015250565b61027881610205565b811461028357600080fd5b5056fea264697066735822122036f0517bcfca6584007e2747211031d416b283a3071f971b1669a1b22b24897c64736f6c63430008070033",
					"opcodes": "PUSH1 0x80 PUSH1 0x40 MSTORE CALLVALUE DUP1 ISZERO PUSH2 0x10 JUMPI PUSH1 0x0 DUP1 REVERT JUMPDEST POP PUSH2 0x2BC DUP1 PUSH2 0x20 PUSH1 0x0 CODECOPY PUSH1 0x0 RETURN INVALID PUSH1 0x80 PUSH1 0x40 MSTORE PUSH1 0x4 CALLDATASIZE LT PUSH2 0x29 JUMPI PUSH1 0x0 CALLDATALOAD PUSH1 0xE0 SHR DUP1 PUSH4 0x2C0C1386 EQ PUSH2 0x2E JUMPI DUP1 PUSH4 0xCA946857 EQ PUSH2 0x38 JUMPI JUMPDEST PUSH1 0x0 DUP1 REVERT JUMPDEST PUSH2 0x36 PUSH2 0x75 JUMP JUMPDEST STOP JUMPDEST CALLVALUE DUP1 ISZERO PUSH2 0x44 JUMPI PUSH1 0x0 DUP1 REVERT JUMPDEST POP PUSH2 0x5F PUSH1 0x4 DUP1 CALLDATASIZE SUB DUP2 ADD SWAP1 PUSH2 0x5A SWAP2 SWAP1 PUSH2 0x15A JUMP JUMPDEST PUSH2 0xFD JUMP JUMPDEST PUSH1 0x40 MLOAD PUSH2 0x6C SWAP2 SWAP1 PUSH2 0x1D9 JUMP JUMPDEST PUSH1 0x40 MLOAD DUP1 SWAP2 SUB SWAP1 RETURN JUMPDEST PUSH1 0x0 CALLVALUE LT PUSH2 0xB8 JUMPI PUSH1 0x40 MLOAD PUSH32 0x8C379A000000000000000000000000000000000000000000000000000000000 DUP2 MSTORE PUSH1 0x4 ADD PUSH2 0xAF SWAP1 PUSH2 0x1B9 JUMP JUMPDEST PUSH1 0x40 MLOAD DUP1 SWAP2 SUB SWAP1 REVERT JUMPDEST CALLVALUE PUSH1 0x0 DUP1 CALLER PUSH20 0xFFFFFFFFFFFFFFFFFFFFFFFFFFFFFFFFFFFFFFFF AND PUSH20 0xFFFFFFFFFFFFFFFFFFFFFFFFFFFFFFFFFFFFFFFF AND DUP2 MSTORE PUSH1 0x20 ADD SWAP1 DUP2 MSTORE PUSH1 0x20 ADD PUSH1 0x0 KECCAK256 DUP2 SWAP1 SSTORE POP JUMP JUMPDEST PUSH1 0x0 DUP1 PUSH1 0x0 DUP4 PUSH20 0xFFFFFFFFFFFFFFFFFFFFFFFFFFFFFFFFFFFFFFFF AND PUSH20 0xFFFFFFFFFFFFFFFFFFFFFFFFFFFFFFFFFFFFFFFF AND DUP2 MSTORE PUSH1 0x20 ADD SWAP1 DUP2 MSTORE PUSH1 0x20 ADD PUSH1 0x0 KECCAK256 SLOAD SWAP1 POP SWAP2 SWAP1 POP JUMP JUMPDEST PUSH1 0x0 DUP2 CALLDATALOAD SWAP1 POP PUSH2 0x154 DUP2 PUSH2 0x26F JUMP JUMPDEST SWAP3 SWAP2 POP POP JUMP JUMPDEST PUSH1 0x0 PUSH1 0x20 DUP3 DUP5 SUB SLT ISZERO PUSH2 0x170 JUMPI PUSH2 0x16F PUSH2 0x241 JUMP JUMPDEST JUMPDEST PUSH1 0x0 PUSH2 0x17E DUP5 DUP3 DUP6 ADD PUSH2 0x145 JUMP JUMPDEST SWAP2 POP POP SWAP3 SWAP2 POP POP JUMP JUMPDEST PUSH1 0x0 PUSH2 0x194 PUSH1 0x1D DUP4 PUSH2 0x1F4 JUMP JUMPDEST SWAP2 POP PUSH2 0x19F DUP3 PUSH2 0x246 JUMP JUMPDEST PUSH1 0x20 DUP3 ADD SWAP1 POP SWAP2 SWAP1 POP JUMP JUMPDEST PUSH2 0x1B3 DUP2 PUSH2 0x237 JUMP JUMPDEST DUP3 MSTORE POP POP JUMP JUMPDEST PUSH1 0x0 PUSH1 0x20 DUP3 ADD SWAP1 POP DUP2 DUP2 SUB PUSH1 0x0 DUP4 ADD MSTORE PUSH2 0x1D2 DUP2 PUSH2 0x187 JUMP JUMPDEST SWAP1 POP SWAP2 SWAP1 POP JUMP JUMPDEST PUSH1 0x0 PUSH1 0x20 DUP3 ADD SWAP1 POP PUSH2 0x1EE PUSH1 0x0 DUP4 ADD DUP5 PUSH2 0x1AA JUMP JUMPDEST SWAP3 SWAP2 POP POP JUMP JUMPDEST PUSH1 0x0 DUP3 DUP3 MSTORE PUSH1 0x20 DUP3 ADD SWAP1 POP SWAP3 SWAP2 POP POP JUMP JUMPDEST PUSH1 0x0 PUSH2 0x210 DUP3 PUSH2 0x217 JUMP JUMPDEST SWAP1 POP SWAP2 SWAP1 POP JUMP JUMPDEST PUSH1 0x0 PUSH20 0xFFFFFFFFFFFFFFFFFFFFFFFFFFFFFFFFFFFFFFFF DUP3 AND SWAP1 POP SWAP2 SWAP1 POP JUMP JUMPDEST PUSH1 0x0 DUP2 SWAP1 POP SWAP2 SWAP1 POP JUMP JUMPDEST PUSH1 0x0 DUP1 REVERT JUMPDEST PUSH32 0x4C612061707565737461206465626520736572206D61796F7220612030000000 PUSH1 0x0 DUP3 ADD MSTORE POP JUMP JUMPDEST PUSH2 0x278 DUP2 PUSH2 0x205 JUMP JUMPDEST DUP2 EQ PUSH2 0x283 JUMPI PUSH1 0x0 DUP1 REVERT JUMPDEST POP JUMP INVALID LOG2 PUSH5 0x6970667358 0x22 SLT KECCAK256 CALLDATASIZE CREATE MLOAD PUSH28 0xCFCA6584007E2747211031D416B283A3071F971B1669A1B22B24897C PUSH5 0x736F6C6343 STOP ADDMOD SMOD STOP CALLER "
				},
				"gasEstimates": {
					"creation": {
						"codeDepositCost": "140000",
						"executionCost": "183",
						"totalCost": "140183"
					},
					"external": {
						"agregarApuesta()": "409",
						"obtenerContratoBalance(address)": "2841"
					}
				},
				"methodIdentifiers": {
					"agregarApuesta()": "2c0c1386",
					"obtenerContratoBalance(address)": "ca946857"
				}
			},
			"storageLayout": {
				"storage": [
					{
						"astId": 5,
						"contract": "backend/Auction/Subasta.sol:Subasta",
						"label": "postoresData",
						"offset": 0,
						"slot": "0",
						"type": "t_mapping(t_address,t_uint256)"
					}
				],
				"types": {
					"t_address": {
						"encoding": "inplace",
						"label": "address",
						"numberOfBytes": "20"
					},
					"t_mapping(t_address,t_uint256)": {
						"encoding": "mapping",
						"key": "t_address",
						"label": "mapping(address => uint256)",
						"numberOfBytes": "32",
						"value": "t_uint256"
					},
					"t_uint256": {
						"encoding": "inplace",
						"label": "uint256",
						"numberOfBytes": "32"
					}
				}
			},
			"userdoc": {
				"kind": "user",
				"methods": {},
				"version": 1
			}
		}
	}
}