{
  "contractName": "Subasta",
  "abi": [
    {
      "inputs": [],
      "name": "agregarApuesta",
      "outputs": [],
      "stateMutability": "payable",
      "type": "function",
      "payable": true
    },
    {
      "inputs": [
        {
          "internalType": "address",
          "name": "_address",
          "type": "address"
        }
      ],
      "name": "obtenerContratoBalance",
      "outputs": [
        {
          "internalType": "uint256",
          "name": "",
          "type": "uint256"
        }
      ],
      "stateMutability": "view",
      "type": "function",
      "constant": true
    },
    {
      "inputs": [],
      "name": "ApuestaMayor",
      "outputs": [
        {
          "internalType": "uint256",
          "name": "",
          "type": "uint256"
        }
      ],
      "stateMutability": "view",
      "type": "function",
      "constant": true
    },
    {
      "inputs": [],
      "name": "MayorPostorAddr",
      "outputs": [
        {
          "internalType": "address",
          "name": "",
          "type": "address"
        }
      ],
      "stateMutability": "view",
      "type": "function",
      "constant": true
    },
    {
      "inputs": [
        {
          "internalType": "uint256",
          "name": "_tiempoFin",
          "type": "uint256"
        }
      ],
      "name": "crearTiempoFin",
      "outputs": [],
      "stateMutability": "nonpayable",
      "type": "function"
    },
    {
      "inputs": [
        {
          "internalType": "address payable",
          "name": "_address",
          "type": "address"
        }
      ],
      "name": "RetirarApuesta",
      "outputs": [],
      "stateMutability": "nonpayable",
      "type": "function"
    }
  ],
  "bytecode": "0x60806040524260035534801561001457600080fd5b5061082f806100246000396000f3fe6080604052600436106100555760003560e01c80630c0b842e1461005a5780632c0c1386146100855780633e7775681461008f57806361c83170146100ba578063ca946857146100e3578063e080dafa14610120575b600080fd5b34801561006657600080fd5b5061006f610149565b60405161007c9190610488565b60405180910390f35b61008d610173565b005b34801561009b57600080fd5b506100a461031b565b6040516100b191906104bc565b60405180910390f35b3480156100c657600080fd5b506100e160048036038101906100dc919061051a565b610325565b005b3480156100ef57600080fd5b5061010a60048036038101906101059190610573565b6103f5565b60405161011791906104bc565b60405180910390f35b34801561012c57600080fd5b50610147600480360381019061014291906105cc565b61043d565b005b6000600260009054906101000a900473ffffffffffffffffffffffffffffffffffffffff16905090565b6000346000803373ffffffffffffffffffffffffffffffffffffffff1673ffffffffffffffffffffffffffffffffffffffff168152602001908152602001600020546101bf9190610628565b905060003411610204576040517f08c379a00000000000000000000000000000000000000000000000000000000081526004016101fb906106db565b60405180910390fd5b600454421115610249576040517f08c379a000000000000000000000000000000000000000000000000000000000815260040161024090610747565b60405180910390fd5b600154811161028d576040517f08c379a0000000000000000000000000000000000000000000000000000000008152600401610284906107d9565b60405180910390fd5b806000803373ffffffffffffffffffffffffffffffffffffffff1673ffffffffffffffffffffffffffffffffffffffff168152602001908152602001600020819055508060018190555033600260006101000a81548173ffffffffffffffffffffffffffffffffffffffff021916908373ffffffffffffffffffffffffffffffffffffffff16021790555050565b6000600154905090565b60008060008373ffffffffffffffffffffffffffffffffffffffff1673ffffffffffffffffffffffffffffffffffffffff1681526020019081526020016000205411156103f2578073ffffffffffffffffffffffffffffffffffffffff166108fc6000808473ffffffffffffffffffffffffffffffffffffffff1673ffffffffffffffffffffffffffffffffffffffff168152602001908152602001600020549081150290604051600060405180830381858888f193505050501580156103f0573d6000803e3d6000fd5b505b50565b60008060008373ffffffffffffffffffffffffffffffffffffffff1673ffffffffffffffffffffffffffffffffffffffff168152602001908152602001600020549050919050565b8060048190555050565b600073ffffffffffffffffffffffffffffffffffffffff82169050919050565b600061047282610447565b9050919050565b61048281610467565b82525050565b600060208201905061049d6000830184610479565b92915050565b6000819050919050565b6104b6816104a3565b82525050565b60006020820190506104d160008301846104ad565b92915050565b600080fd5b60006104e782610447565b9050919050565b6104f7816104dc565b811461050257600080fd5b50565b600081359050610514816104ee565b92915050565b6000602082840312156105305761052f6104d7565b5b600061053e84828501610505565b91505092915050565b61055081610467565b811461055b57600080fd5b50565b60008135905061056d81610547565b92915050565b600060208284031215610589576105886104d7565b5b60006105978482850161055e565b91505092915050565b6105a9816104a3565b81146105b457600080fd5b50565b6000813590506105c6816105a0565b92915050565b6000602082840312156105e2576105e16104d7565b5b60006105f0848285016105b7565b91505092915050565b7f4e487b7100000000000000000000000000000000000000000000000000000000600052601160045260246000fd5b6000610633826104a3565b915061063e836104a3565b9250827fffffffffffffffffffffffffffffffffffffffffffffffffffffffffffffffff03821115610673576106726105f9565b5b828201905092915050565b600082825260208201905092915050565b7f4c612061707565737461206465626520736572206d61796f7220612030000000600082015250565b60006106c5601d8361067e565b91506106d08261068f565b602082019050919050565b600060208201905081810360008301526106f4816106b8565b9050919050565b7f4c612073756261737461207961207465726d696e6f0000000000000000000000600082015250565b600061073160158361067e565b915061073c826106fb565b602082019050919050565b6000602082019050818103600083015261076081610724565b9050919050565b7f5375206d6f6e746f206573746120706f7220646562616a6f206465206c61204160008201527f707565737461204d61796f720000000000000000000000000000000000000000602082015250565b60006107c3602c8361067e565b91506107ce82610767565b604082019050919050565b600060208201905081810360008301526107f2816107b6565b905091905056fea2646970667358221220e28d9f7dd7dca999cb8637fb4e359b5cb1d96597b4835b852e0639d42290504164736f6c634300080f0033",
  "immutableReferences": {},
  "source": "//SPDX-License-Identifier: GLP-3.0\r\npragma solidity >0.4.0 <0.9.0;\r\n\r\n\r\ncontract Subasta{\r\n    mapping(address => uint) postoresData;\r\n    uint apuestaMayor;\r\n    address postorMayor;\r\n    uint tiempoInicio = block.timestamp;\r\n    uint tiempoFin;\r\n\r\n\r\n\r\n    //Agregar una nueva apuesta\r\n    function agregarApuesta() public payable{\r\n        //Conficional que la apuesta no sea cero\r\n        uint calcularMonto = postoresData[msg.sender]+msg.value;\r\n        require(msg.value > 0, \"La apuesta debe ser mayor a 0\");\r\n        // //Verificar que la subasta no expir\r\n        require(block.timestamp<=tiempoFin, \"La subasta ya termino\");\r\n        //Verificar Apuesta Mayor\r\n        require(calcularMonto > apuestaMayor, \"Su monto esta por debajo de la Apuesta Mayor\");\r\n        postoresData[msg.sender] = calcularMonto;\r\n        apuestaMayor = calcularMonto;\r\n        postorMayor=msg.sender;\r\n    }\r\n    //Obtener el balance del contrato del usuario\r\n    function obtenerContratoBalance(address _address) public view returns(uint){\r\n        return postoresData[_address];\r\n    }\r\n    \r\n    //Obtener la apuesta mayor\r\n    function ApuestaMayor() public view returns(uint){\r\n        return apuestaMayor;\r\n    }\r\n\r\n    //Obtener la direccin del apostador mayor\r\n    function MayorPostorAddr() public view returns(address){\r\n        return postorMayor;\r\n    }\r\n\r\n    //Hora que termina la Subasta\r\n    function crearTiempoFin(uint _tiempoFin) public {\r\n        tiempoFin = _tiempoFin;\r\n    }\r\n\r\n    //Retirar Apuesta\r\n    function RetirarApuesta(address payable _address) public{\r\n        if(postoresData[_address]>0){\r\n            _address.transfer(postoresData[_address]);\r\n        }\r\n    }\r\n}",
  "sourcePath": "E:\\Visual Studio\\concurrente202201\\frontend\\Subasta\\contracts\\Subasta.sol",
  "compiler": {
    "name": "solc",
    "version": "0.8.15+commit.e14f2714.Emscripten.clang"
  },
  "schemaVersion": "3.4.7",
  "updatedAt": "2022-07-01T23:11:51.414Z",
  "networkType": "ethereum",
  "devdoc": {
    "kind": "dev",
    "methods": {},
    "version": 1
  },
  "userdoc": {
    "kind": "user",
    "methods": {},
    "version": 1
  }
}